:020000040800F2
:100000000000022071040008ED030008F503000859
:10001000FD030008050400080D04000800000000AE
:1000200000000000000000000000000015040008AF
:100030002304000800000000310400083F04000809
:10004000C1040008C1040008C1040008C10400087C
:10005000C1040008C1040008ED020008C104000842
:10006000C1040008C1040008C1040008C10400085C
:10007000C1040008C1040008C1040008C10400084C
:10008000C1040008C1040008C10400080000000009
:10009000000000000000000000000000C104000893
:1000A000C1040008C1040008C1040008C10400081C
:1000B000C1040008C1040008C1040008C10400080C
:1000C000C1040008C1040008C1040008C1040008FC
:1000D000C1040008C1040008C104000800000000B9
:1000E000C1040008C1040008C104000800000000A9
:1000F000000000000000000000000000C104000833
:1001000000000000C1040008C1040008C104000888
:1001100000000000000000000000000000000000DF
:10012000C1040008C1040008C1040008C10400089B
:10013000C1040008000000000000000000000000F2
:10014000000000000000000000000000C1040008E2
:10015000C1040008C1040008C1040008C10400086B
:10016000C1040008C10400080000000000000000F5
:10017000000000000000000000000000000000007F
:1001800000000000C10400080000000000000000A2
:08019000C1040008C1040008CD
:1001980010B5054C237833B9044B13B10448AFF3B9
:1001A80000800123237010BD04000020000000001F
:1001B8003405000808B5034B1BB103490348AFF3E6
:1001C800008008BD00000000080000203405000879
:1001D80080B483B000AF00233B60104B1B6B0F4A09
:1001E80043F0080313630D4B1B6B03F008033B60DC
:1001F8003B680B4B7B607B681B6823F07F427B6806
:100208001A607B681B6843F0AA427B681A6000BFCB
:100218000C37BD465DF8047B704700BF00380240CC
:10022800000C024080B483B000AF00233B600D4B4C
:100238001B6B0C4A43F0010313630A4B1B6B03F05F
:1002480001033B603B68084B7B607B681B6823F0BD
:1002580003027B681A6000BF0C37BD465DF8047B5B
:10026800704700BF003802400000024080B483B0ED
:1002780000AF074B7B607B681B68DBB203F00103B0
:10028800DBB218460C37BD465DF8047B704700BFEB
:100298001000024080B485B000AF03463960FB719E
:1002A8000F4BFB603B68012B09D1FB681B68FA798F
:1002B800012101FA02F21A43FB681A6009E0FB689F
:1002C8001B68FA791032012101FA02F21A43FB681D
:1002D8001A6000BF1437BD465DF8047B704700BF45
:1002E800180C024080B582B000AFFFF7BFFF03468D
:1002F800002B04D001210E20FFF7CCFF03E00021E2
:100308000E20FFF7C7FF064B7B607B681B6843F036
:1003180001027B681A6000BF0837BD4680BD00BF78
:10032800143C014080B489B000AF224BBB61224B22
:100338007B61224B3B61BB691B6843F00102BB69CF
:100348001A607B691B6843F001027B691A603B698C
:100358001B6843F001023B691A60194B1B68184A75
:1003680043F0400313600023FB604FF00053BB6071
:100378000023FB610AE0FB69FA681A44FB69B96863
:100388000B4412781A70FB690133FB61FB69B3F502
:10039800CC7FF0DB0B4B4FF000521A600A4B7B60AE
:1003A8000A4A7B681A6000BF2437BD465DF8047BA3
:1003B800704700BF083C01400C3C0140003C014034
:1003C80000E100E008ED00E058000020ED02000820
:1003D80080B500AFFFF7FCFEFFF724FFFFF7A2FF91
:1003E80000BFFDE780B400AF00BFFDE780B400AFF9
:1003F80000BFFDE780B400AF00BFFDE780B400AFE9
:1004080000BFFDE780B400AF00BFFDE780B400AFD8
:1004180000BFBD465DF8047B704780B400AF00BFE5
:10042800BD465DF8047B704780B400AF00BFBD4691
:100438005DF8047B704780B500AF00F03FF800BF5F
:1004480080BD000080B400AF064BD3F88830054A61
:1004580043F47003C2F8883000BFBD465DF8047BE2
:10046800704700BF00ED00E0DFF834D0FFF7EAFF87
:100478000C480D490D4A002302E0D458C4500433F7
:10048800C4188C42F9D30A4A0A4C002301E01360CD
:100498000432A242FBD300F025F8FFF799FF70471A
:1004A800000002200000002004000020540500087D
:1004B8000400002024000020FEE7000080B400AF04
:1004C800064B1B781A46064B1B681344044A1360F4
:1004D80000BFBD465DF8047B704700BF00000020E8
:1004E8002000002070B50D4B0D4D5B1B9C100026A5
:1004F800A64209D100F01AF80A4D0B4B5B1B9C1061
:100508000026A64205D170BD55F8043B9847013630
:10051800EEE755F8043B98470136F2E74C0500082A
:100528004C0500084C05000850050008F8B500BF48
:10053800F8BC08BC9E467047F8B500BFF8BC08BCBC
:040548009E46704714
:04054C00BD010008E5
:040550009901000805
:0405540001000000A2
:04000005080004717A
:00000001FF
