:020000040800F2
:1000000000000220210300089D020008A50200084C
:10001000AD020008B5020008BD02000800000000A3
:10002000000000000000000000000000C502000801
:10003000D302000800000000E1020008EF020008FF
:1000400071030008710300087103000871030008C0
:1000500071030008710300087103000871030008B0
:1000600071030008710300087103000871030008A0
:100070007103000871030008710300087103000890
:1000800071030008710300087103000800000000FC
:1000900000000000000000000000000071030008E4
:1000A0007103000871030008710300087103000860
:1000B0007103000871030008710300087103000850
:1000C0007103000871030008710300087103000840
:1000D00071030008710300087103000800000000AC
:1000E000710300087103000871030008000000009C
:1000F0000000000000000000000000007103000884
:10010000000000007103000871030008710300087B
:1001100000000000000000000000000000000000DF
:1001200071030008710300087103000871030008DF
:100130007103000800000000000000000000000043
:100140000000000000000000000000007103000833
:1001500071030008710300087103000871030008AF
:100160007103000871030008000000000000000097
:10017000000000000000000000000000000000007F
:1001800000000000710300080000000000000000F3
:0801900071030008710300086F
:1001980010B5054C237833B9044B13B10448AFF3B9
:1001A80000800123237010BD0C0000200000000017
:1001B800B406000808B5034B1BB103490348AFF365
:1001C800008008BD0000000010000020B4060008F0
:1001D80080B400AF0B4B1B680A4A43F00803136056
:1001E800094B1B68084A23F07F431360064B1B68C2
:1001F800054A43F0AA43136000BFBD465DF8047B7F
:10020800704700BF30380240000C024080B500AF94
:1002180000F0ACF8FFF7DCFF094B1B68084A23F431
:1002280070431360502000F013F9054B1B68044A13
:1002380043F440531360502000F00AF900BFEBE785
:10024800140C024080B483B000AF00237B60104BD5
:100258005B6C0F4A43F4804353640D4B5B6C03F4AF
:1002680080437B607B6800233B60094B1B6C084A1A
:1002780043F080531364064B1B6C03F080533B60C0
:100288003B6800BF0C37BD465DF8047B704700BF74
:100298000038024080B400AF00BFFDE780B400AF73
:1002A80000BFFDE780B400AF00BFFDE780B400AF3A
:1002B80000BFFDE780B400AF00BFFDE780B400AF2A
:1002C80000BFBD465DF8047B704780B400AF00BF37
:1002D800BD465DF8047B704780B400AF00BFBD46E3
:1002E8005DF8047B704780B500AF00F091F800BF5F
:1002F80080BD000080B400AF064BD3F88830054AB3
:1003080043F47003C2F8883000BFBD465DF8047B33
:10031800704700BF00ED00E0DFF834D0FFF7EAFFD8
:100328000C480D490D4A002302E0D458C450043348
:10033800C4188C42F9D30A4A0A4C002301E013601E
:100348000432A242FBD300F08DF9FFF75FFF70473C
:1003580000000220000000200C000020D406000845
:100368000C0000202C000020FEE7000080B500AF44
:100378000E4B1B680D4A43F4007313600B4B1B684C
:100388000A4A43F480631360084B1B68074A43F426
:1003980080731360032000F031F90F2000F008F893
:1003A800FFF750FF0023184680BD00BF003C024005
:1003B80080B582B000AF7860124B1A68124B1B7878
:1003C80019464FF47A73B3FBF1F3B2FBF3F3184613
:1003D80000F03BF90346002B01D001230EE07B68B7
:1003E8000F2B0AD8002279684FF0FF3000F011F97E
:1003F800064A7B681360002300E00123184608378B
:10040800BD4680BD00000020080000200400002038
:1004180080B400AF064B1B781A46064B1B68134482
:10042800044A136000BFBD465DF8047B704700BFF7
:10043800080000202800002080B400AF034B1B6890
:100448001846BD465DF8047B704700BF28000020B1
:1004580080B584B000AF7860FFF7EEFFB8607B68C6
:10046800FB60FB68B3F1FF3F05D00A4B1B781A46C7
:10047800FB681344FB6000BFFFF7DEFF0246BB6862
:10048800D31AFA689A42F7D800BF00BF1037BD46A2
:1004980080BD00BF0800002080B485B000AF786040
:1004A8007B6803F00703FB600C4BDB68BB60BA6832
:1004B8004FF6FF031340BB60FB681A02BB68134387
:1004C80043F0BF6343F40033BB60044ABB68D360A6
:1004D80000BF1437BD465DF8047B704700ED00E0AF
:1004E80080B400AF044BDB681B0A03F0070318460F
:1004F800BD465DF8047B704700ED00E080B483B032
:1005080000AF03463960FB7197F90730002B0ADB0F
:100518003B68DAB20C4997F907301201D2B20B44A2
:1005280083F800230AE03B68DAB20849FB7903F054
:100538000F03043B1201D2B20B441A7600BF0C37EA
:10054800BD465DF8047B704700E100E000ED00E087
:1005580080B489B000AFF860B9607A60FB6803F0D6
:100568000703FB61FB69C3F10703042B28BF0423BE
:10057800BB61FB690433062B02D9FB69033B00E02E
:1005880000237B614FF0FF32BB6902FA03F3DA43C1
:10059800BB681A407B699A404FF0FF317B6901FACA
:1005A80003F3D9437B680B40134318462437BD46F1
:1005B8005DF8047B7047000080B582B000AF7860BA
:1005C8007B68013BB3F1807F01D301230FE00A4A26
:1005D8007B68013B53600F214FF0FF30FFF78EFF20
:1005E800054B00229A60044B07221A600023184624
:1005F8000837BD4680BD00BF10E000E080B582B07E
:1006080000AF78607868FFF747FF00BF0837BD463E
:1006180080BD80B586B000AF0346B9607A60FB73D1
:1006280000237B61FFF75CFF78617A68B9687869B5
:10063800FFF78EFF024697F90F3011461846FFF76D
:100648005DFF00BF1837BD4680BD80B582B000AFE2
:1006580078607868FFF7B0FF034618460837BD464C
:1006680080BD000070B50D4B0D4D5B1B9C10002626
:10067800A64209D100F01AF80A4D0B4B5B1B9C10DF
:100688000026A64205D170BD55F8043B98470136AF
:10069800EEE755F8043B98470136F2E7CC06000828
:1006A800CC060008CC060008D0060008F8B500BF44
:1006B800F8BC08BC9E467047F8B500BFF8BC08BC3B
:0406C8009E46704793
:0406CC00BD01000864
:0406D0009901000884
:0C06D4000024F4001000000001000000F1
:0400000508000321CB
:00000001FF
