:020000040800F2
:100000000000022001090008110800081908000872
:100010002108000829080008310800080000000035
:100020000000000000000000000000003908000887
:100030004708000800000000550800086308000891
:100040005109000851090008510900085109000828
:100050005109000851090008510900085109000818
:100060005109000851090008510900085109000808
:1000700051090008510900085109000851090008F8
:10008000510900085109000851090008000000004A
:1000900000000000000000000000000051090008FE
:1000A00051090008510900085109000851090008C8
:1000B00051090008510900085109000851090008B8
:1000C00051090008510900085109000851090008A8
:1000D00051090008510900085109000800000000FA
:1000E00051090008510900085109000800000000EA
:1000F000000000000000000000000000510900089E
:1001000000000000510900085109000851090008C9
:1001100000000000000000000000000000000000DF
:100120005109000851090008510900085109000847
:10013000510900080000000000000000000000005D
:10014000000000000000000000000000510900084D
:100150005109000851090008510900085109000817
:1001600051090008510900080000000000000000CB
:10017000000000000000000000000000000000007F
:10018000000000005109000800000000000000000D
:080190005109000851090008A3
:1001A00010B5054C237833B9044B13B10448AFF3B1
:1001B00000800123237010BD5800002000000000C3
:1001C000F012000808B5034B1BB103490348AFF315
:1001D000008008BD000000005C000020F012000854
:1001E00001F0FF01102A2BDB10F0070F08D010F8E8
:1001F000013B013A8B422DD010F0070F42B3F6D1EC
:10020000F0B441EA012141EA014122F007047FF004
:1002100000070023F0E80256083C85EA010586EA5B
:10022000010685FA47F5A3FA87F586FA47F6A5FA97
:1002300087F68EB9EED1F0BC01F0FF0102F00702A3
:1002400032B110F8013B013A83EA010313B1F8D14E
:100250000020704701387047002D06BF354603382F
:10026000073815F0010F07D1013015F4807F02BF68
:10027000013015F4C03F0130F0BC0138704700BFB9
:1002800080B400AF094BDB68084A43F08073D36049
:10029000074B00225A60064B1B68054A43F00103D6
:1002A000136000BFBD465DF8047B7047F0ED00E0D1
:1002B000001000E080B485B000AF78600D4B1B6883
:1002C0000D4AA2FB03239A0C7B6802FB03F3FB603D
:1002D0000A4B5B68BB6000BF084B5A68BB68D31A07
:1002E000FA689A42F8D800BF00BF1437BD465DF8DF
:1002F000047B70470000002083DE1B43001000E0F9
:1003000080B582B000AF786003E04FF47A70FFF7F9
:10031000D1FF7B685A1E7A60002BF6D100BF00BF68
:100320000837BD4680BD000080B400AF204B1B6B7A
:100330001F4A43F0020313631D4B5B6C1C4A43F0DE
:10034000100353641B4B1B681A4A23F47043136059
:10035000184B1B68174A43F420431360154B1B6A64
:10036000144A23F07F431362124B1B6A114A43F075
:10037000EE4313620F4B9B680E4A43F47043936045
:100380000C4BDB680B4A23F47043D360094BDB68EA
:10039000084A43F4A043D360074B8B229A60064B74
:1003A00042F20C02DA6000BFBD465DF8047B704784
:1003B00000380240000402400010014080B483B0C5
:1003C00000AF0346FB7100BF074B1B6803F08003BF
:1003D000002BF9D0044AFB79536000BF0C37BD46AF
:1003E0005DF8047B704700BF0010014080B582B00B
:1003F00000AF786006E07B685A1C7A601B7818466C
:10040000FFF7DCFF7B681B78002BF4D100BF00BF37
:100410000837BD4680BD0FB480B5A2B000AF07F16C
:1004200094037B6007F108007B68D7F89020802157
:1004300000F0D2FA07F108031846FFF7D7FF00BF14
:100440008837BD46BDE8804004B0704780B400AF37
:10045000054B1B6B044A43F00103136300BFBD4609
:100460005DF8047B704700BF0038024080B400AFE5
:100470000E4B1B680D4A23F00C0313600B4B1B68DB
:100480000A4A43F004031360084B5B68074A23F0F1
:1004900002035360054B9B68044A43F00C039360CE
:1004A00000BFBD465DF8047B704700BF00000240FE
:1004B00080B400AF0B4B1B680A4A23F00C03136097
:1004C000084BDB68074A23F00C03D360054BDB685D
:1004D000044A43F00403D36000BFBD465DF8047BCB
:1004E000704700BF0000024080B400AF044B4FF4DF
:1004F00000329A6100BFBD465DF8047B704700BFC3
:100500000000024080B400AF034B02229A6100BF9A
:10051000BD465DF8047B70470000024080B400AF28
:10052000054B1B695B08DBB203F00103DBB2184625
:10053000BD465DF8047B70470000024080B588B07E
:1005400000AF7860396007F10C0300221A601A715D
:100550000023FB61FFF78AFFFFF7C6FF1220FFF7BA
:10056000CFFEFFF7CFFF1E20FFF7A4FEFFF7A0FF8F
:100570000023FB610BE00120FFF79CFEFB690133C8
:10058000FB61FB69642B02D94FF0FF33A2E0FFF758
:10059000C5FF0346012BEED00023FB610BE00120D9
:1005A000FFF788FEFB690133FB61FB69642B02D90D
:1005B0004FF0FF338EE0FFF7B1FF0346002BEED084
:1005C0000023FB610BE00120FFF774FEFB690133A0
:1005D000FB61FB69642B02D94FF0FF337AE0FFF730
:1005E0009DFF0346012BEED072B600BF0023BB6116
:1005F00053E007237B614AE00023FB610DE001200B
:10060000FFF758FEFB690133FB61FB69642B04D9DA
:1006100062B600BF6FF001035CE0FFF77FFF0346A7
:10062000002BECD02820FFF745FEFFF777FF0346AD
:10063000012B29D107F10C02BB6913441B785AB274
:1006400001217B6901FA03F35BB213435BB2D9B2B8
:1006500007F10C02BB6913440A461A700023FB61C0
:100660000DE00120FFF726FEFB690133FB61FB690A
:10067000642B04D962B600BF6FF001032AE0FFF7D4
:100680004DFF0346012BECD07B69013B7B617B690D
:10069000002BB1DABB690133BB61BB69042BA8DD58
:1006A00062B600BF3A7B7B7B1344DAB2BB7B134458
:1006B000DAB2FB7B1344FB743B7CFA7C9A4202D097
:1006C0006FF0020306E03A7B3B681A70BA7B7B68E6
:1006D0001A70002318462037BD4680BD80B400AF95
:1006E0000B4B1B6B0A4A43F008031363094B1B684F
:1006F000084A23F040731360064B1B68054A43F019
:100700008073136000BFBD465DF8047B704700BF77
:1007100000380240000C024080B400AF054B5B691A
:10072000044A83F48053536100BFBD465DF8047BE7
:10073000704700BF000C024080B582B000AFFFF7E9
:100740009FFDFFF7F1FDFFF781FEFFF7C7FF40F2C6
:10075000DC50FFF7D5FD2648FFF75DFE2548FFF783
:100760005AFE2548FFF757FE2448FFF754FE0023A2
:10077000BB7000237B7000237B607B6801337B6050
:100780007A1CBB1C11461846FFF7D8FE0346FB70C7
:1007900097F90330002B09D1FFF7BEFFBB781A464B
:1007A0007B7879681648FFF736FE1CE097F903302E
:1007B000B3F1FF3F04D179681248FFF72CFE12E035
:1007C00097F9033013F1020F04D179680E48FFF74F
:1007D00022FE08E097F9033013F1030F03D1796883
:1007E0000A48FFF718FE4FF47A70FFF789FDC4E757
:1007F0000813000838130008641300089013000859
:10080000C0130008EC130008241400085414000856
:1008100080B400AF00BFFDE780B400AF00BFFDE7CC
:1008200080B400AF00BFFDE780B400AF00BFFDE7BC
:1008300080B400AF00BFFDE780B400AF00BFBD468D
:100840005DF8047B704780B400AF00BFBD465DF823
:10085000047B704780B400AF00BFBD465DF8047BE9
:10086000704780B500AF00F075F800BF80BD000094
:1008700080B586B000AF7860144A154BD31A7B61FF
:100880007B693B61134B1B68002B02D1114B124A51
:100890001A60104B1A687B6813443A699A4207D26F
:1008A00000F0A8F803460C221A604FF0FF3309E06D
:1008B000084B1B68FB60074B1A687B681344054AAA
:1008C0001360FB6818461837BD4680BD0000022043
:1008D0000004000074000020C801002080B400AFB4
:1008E000064BD3F88830054A43F47003C2F88830C9
:1008F00000BFBD465DF8047B704700BF00ED00E01F
:10090000DFF834D0FFF7EAFF0C480D490D4A002309
:1009100002E0D458C4500433C4188C42F9D30A4AB4
:100920000A4C002301E013600432A242FBD300F022
:1009300067F8FFF701FF7047000002200000002069
:1009400058000020D014000858000020C4010020E6
:10095000FEE7000080B400AF064B1B781A46064B3A
:100960001B681344044A136000BFBD465DF8047B56
:10097000704700BF040000207800002030B5144606
:10098000002C9BB005461A4605DA8B2303604FF016
:10099000FF301BB030BD4FF40273ADF80C304FF098
:1009A0000003199314BF04F1FF3323460293059308
:1009B0004FF6FF7300910491ADF80E3069461E9B0F
:1009C00000F09CF9431CBCBF8B232B60002CE0D0B3
:1009D000009B00221A70DCE707B5009313460A4615
:1009E000014603480068FFF7C9FF03B000BD00BF20
:1009F00008000020014B1868704700BF0800002065
:100A000070B50D4B0D4D5B1B9C100026A64209D105
:100A100000F06EFC0A4D0B4B5B1B9C100026A6429F
:100A200005D170BD55F8043B98470136EEE755F8FF
:100A3000043B98470136F2E7C8140008C8140008C0
:100A4000C8140008CC1400087047704738B5054634
:100A5000002941D051F8043C0C1F002BB8BFE4180A
:100A600000F0E0F81D4A136833B96360146028464B
:100A7000BDE8384000F0DCB8A34208D9206821184E
:100A80008B4201BF19685B6809182160EDE71A46BF
:100A90005B680BB1A342FAD911685018A0420BD180
:100AA00020680144501883421160E0D118685B68E7
:100AB000536008441060DAE702D90C232B60D6E7B4
:100AC000206821188B4204BF19685B68636004BF0B
:100AD000091821605460CAE738BD00BFC00100207A
:100AE00070B50F4E0C463168054611B900F0ACFBED
:100AF00030602146284600F0A7FB431C03D14FF08D
:100B0000FF34204670BDC41C24F00304A042F8D07A
:100B1000211A284600F098FB0130F2D1EFE700BF20
:100B2000BC0100202DE9F843CD1C25F00305083554
:100B30000C2D38BF0C25002D064601DBA94204D937
:100B40000C2333600020BDE8F883DFF8D48000F088
:100B500069F8D8F800301C4644BB29463046FFF7F8
:100B6000BFFF431C044658D1D8F800402746002F49
:100B700043D1002C4BD023683946304604EB03099F
:100B800000F062FB814542D121686D1A294630464A
:100B9000FFF7A6FF01303AD023682B442360D8F832
:100BA00000305A6862BBC8F800700FE02268521B20
:100BB00020D40B2A17D96119A342256018BF5960A8
:100BC000636808BFC8F8001062514B60304600F0FF
:100BD0002FF804F10B00231D20F00700C21A1CBFE0
:100BE0001B1AA350AFE76268A3420CBFC8F80020ED
:100BF0005A60EBE723466468AEE73C467F68B6E799
:100C00001A465B68A342FBD100235360DEE70C2346
:100C10003360304600F00CF894E70560D6E700BF7B
:100C2000C00100200148FFF70FBF00BFB80100203E
:100C30000148FFF70ABF00BFB80100202DE9F047C7
:100C40008E681F46BE4282460C469046334653D8B5
:100C5000B1F90C0010F4906F2BD065692368096915
:100C600005EB4505A3EB010905EBD5757B1C6D1064
:100C70004B44AB422A4684BF1D462A46430527D52E
:100C800011465046FFF74EFF064658B321694A46C3
:100C900000F0EAFAA38923F4906343F08003A38170
:100CA000266165614E44A5EB09052660A5603E46B8
:100CB0003B461F4620683A46414600F0ABFAA3681F
:100CC0009B1BA36023683B4423600020BDE8F087A2
:100CD000504600F0D7FA06460028E1D12169504677
:100CE000FFF7B4FE0C23CAF80030A38943F0400399
:100CF000A3814FF0FF30E9E73E46DBE72DE9F047FF
:100D00001F468B891B069CB006460D46144610D51F
:100D10000B6973B94021FFF705FF2860286130B9DE
:100D20000C2333604FF0FF301CB0BDE8F087402348
:100D30006B610023099320238DF82930039730231A
:100D4000654F8DF82A304FF001082346994613F875
:100D5000012B0AB1252AF9D1B9EB040A0BD053466D
:100D6000224629463046FFF769FF013000F0A48093
:100D7000099A5244099299F80030002B00F09C80A7
:100D800000234FF0FF32CDE9052309F10109049357
:100D900007938DF853301A934C464F4814F8011BB3
:100DA0000522FFF71DFA049BD0B9D80644BF2022C4
:100DB0008DF85320190744BF2B228DF8532099F842
:100DC00000202A2A13D0079A4C4600204FF00A0C24
:100DD000214611F8013B303B092B49D968B913E092
:100DE000C01B08FA00F018430490A146D4E7039A08
:100DF000111D12680391002A01DB079204E05242A0
:100E000043F002030792049323782E2B0AD16378D0
:100E10002A2B32D1039B1A1D1B68039243EAE3730A
:100E200002340593DFF8C090217803224846FFF78B
:100E3000D7F938B1049BA0EB09004022824013434C
:100E40000134049314F8011B24488DF8281006225D
:100E5000FFF7C6F9002835D0214818BB039B07339C
:100E600023F0070308330393099B034409936CE7BA
:100E70000CFB02320C460120AAE700230134059343
:100E800019464FF00A0C204610F8012B303A092A77
:100E900003D9002BC6D00591C4E70CFB0121044601
:100EA0000123F0E703AB00932A460E4B04A930461A
:100EB000AFF30080421CD7D1AB895B063FF532AF60
:100EC000099831E703AB00932A46064B04A9304644
:100ED00000F07AF8EEE700BF8D14000897140008C0
:100EE000000000003D0C0008931400082DE9F047B5
:100EF000164698468A680B69DDF820909342B8BF81
:100F00001346336091F8432007460C460AB101337B
:100F100033602368990642BF336802333360256823
:100F200015F0060506D104F1190AE36832689B1A28
:100F3000AB4226DC94F843302268003B18BF012303
:100F400092062BD404F1430241463846C84701308B
:100F50001ED02368226903F00603042B02BFE56854
:100F60003368ED1AA3680CBF25EAE57500259342A6
:100F7000C4BF9B1AED1800261A34B5421AD10020BE
:100F800008E00123524641463846C847013003D1A4
:100F90004FF0FF30BDE8F0870135C6E7E1185A1C75
:100FA000302081F84300224494F8451082F8431021
:100FB0000233C7E70123224641463846C84701307D
:100FC000E6D00136D9E700002DE9F0430D7E85B06B
:100FD000782D90460C9E07460C46994601F1430237
:100FE00007D8622D0AD8002D00F0D780582D00F0C8
:100FF000BC8004F1420684F842503BE0A5F1630353
:10100000152BF6D801A151F823F000BF6510000898
:1010100079100008F30F0008F30F0008F30F000821
:10102000F30F000879100008F30F0008F30F000811
:10103000F30F0008F30F000881110008A310000847
:1010400033110008F30F0008F30F0008A311000884
:10105000F30F0008A3100008F30F0008F30F0008B7
:101060003B11000833681A1D1B68326004F1420608
:1010700084F842300123A1E033682068191D3160F3
:10108000060601D51D6803E04506FBD5B3F90050FF
:10109000002D03DA2D236D4284F843305B480A2388
:1010A00011E021683368080653F8045B02D449064E
:1010B00048BFADB23360237E54486F2B5CD1082308
:1010C000002184F843106668A660002E05DB2168C5
:1010D0002E4321F00401216050D01646B5FBF3F1F8
:1010E00003FB115C10F80CC006F801CDAC4663455B
:1010F0000D46F3D9082B0BD12368DB0708D52369EC
:1011000061689942DEBF302306F8013C06F1FF36E4
:10111000921B2261CDF80090434603AA214638462F
:10112000FFF7E4FE01304ED14FF0FF3005B0BDE8CF
:10113000F083236843F0200323603548782584F842
:1011400045502368316813F0800F51F8045B03D1D8
:1011500013F0400F18BFADB23160D90744BF43F060
:10116000200323601DB11023AAE72848E7E723687E
:1011700023F020032360F6E70A23A1E71646B9E728
:10118000336825686169181D30602E061B6801D51B
:10119000196002E06806FBD519800023236116461A
:1011A000B8E733681A1D32601E6862680021304655
:1011B000FFF716F808B1801B6060636823610023A5
:1011C00084F84330A6E72369324641463846C8478B
:1011D0000130A9D023689B0713D4E068039B984291
:1011E000B8BF1846A2E70123324641463846C847F1
:1011F000013099D00135E36803995B1AAB42F2DC08
:10120000EBE7002504F11906F5E700BF9E1400087E
:10121000AF140008884210B501EB020402D98442E1
:10122000234607D8431EA14207D011F8012B03F82B
:10123000012FF8E70244824200D110BD13F8011DCE
:1012400002F8011DF7E7000038B5064D00230446FB
:1012500008462B60FFF70CFB431C02D12B6803B13F
:10126000236038BDB40100200A44914200F1FF33ED
:1012700000D1704710B511F8014B03F8014F9142AE
:10128000F9D110BD2DE9F041074614460D4621B9AC
:10129000BDE8F0411146FFF745BC2AB9FFF7D6FB80
:1012A00025462846BDE8F08100F01AF8844206463B
:1012B00002D8B4EB500FF4D821463846FFF732FC81
:1012C000804608B94546ECE7B4422246294628BF85
:1012D0003246FFF7C9FF29463846FFF7B7FBF1E76B
:1012E00051F8043C181F002BBCBF0B58C0187047A6
:1012F000F8B500BFF8BC08BC9E467047F8B500BF03
:08130000F8BC08BC9E467047D2
:101308000D0A3D3D3D3D3D3D3D3D3D3D3D3D3D3D68
:101318003D3D3D3D3D3D3D3D3D3D3D3D3D3D3D3DF5
:101328003D3D3D3D3D3D3D3D3D3D3D0D0A000000FF
:101338002053544D333246343131204448543131EE
:10134800202620554152542052656769737465728E
:101358002044726976657220200D0A00204261756A
:1013680064726174653A20313135323030206270F0
:1013780073207C2044485431312050696E3A205003
:10138800413120200D0A00003D3D3D3D3D3D3D3DA4
:101398003D3D3D3D3D3D3D3D3D3D3D3D3D3D3D3D75
:1013A8003D3D3D3D3D3D3D3D3D3D3D3D3D3D3D3D65
:1013B8003D0D0A0D0A0000005B256C755D20546523
:1013C8006D703A202564202A432C2048756D696485
:1013D8006974793A202564202525205B4F4B5D0DE3
:1013E8000A0000005B256C755D204572726F723AC9
:1013F800204448543131204E6F20526573706F6E0F
:10140800736521204B69656D207472612064617970
:10141800206E6F69205041312E0D0A005B256C75D6
:101428005D204572726F723A20444854313120541D
:10143800696D656F7574206B686920646F632064DB
:1014480075206C696575210D0A0000005B256C75B7
:101458005D204572726F723A2044485431312043FE
:101468006865636B73756D206661696C65642028B7
:10147800536169206C656368206475206C696575C3
:1014880029210D0A00232D302B2000686C4C0065A3
:101498006667454647003031323334353637383998
:1014A80041424344454600303132333435363738CB
:0814B80039616263646566009E
:0814C00020EDFF7F0100000098
:0414C800C501000852
:0414CC00A101000872
:1014D0000024F400010000000C00002000000000C7
:1014E0007C000020E40000204C01002000000000EF
:1014F00000000000000000000000000000000000EC
:1015000000000000000000000000000000000000DB
:1015100000000000000000000000000000000000CB
:081520000000000000000000C3
:0400000508000901E5
:00000001FF
