:020000040800F2
:1000000000000220A50B0008B50A0008BD0A000880
:10001000C50A0008CD0A0008D50A00080000000043
:10002000000000000000000000000000DD0A0008E1
:10003000EB0A000800000000F90A0008070B00089E
:10004000F50B0008F50B0008F50B0008F50B000890
:10005000F50B0008F50B0008F50B0008F50B000880
:10006000F50B0008F50B0008F50B0008F50B000870
:10007000F50B0008F50B0008F50B0008F50B000860
:10008000F50B0008F50B0008F50B00080000000058
:10009000000000000000000000000000F50B000858
:1000A000F50B0008C9070008F50B0008F50B000860
:1000B00085080008F50B0008F50B0008F50B000893
:1000C000F50B0008F50B0008F50B0008F50B000810
:1000D000F50B0008F50B0008F50B00080000000008
:1000E000F50B0008F50B0008F50B000800000000F8
:1000F000000000000000000000000000F50B0008F8
:1001000000000000F50B0008F50B0008F50B0008D7
:1001100000000000000000000000000000000000DF
:10012000F50B0008F50B0008F50B0008F50B0008AF
:10013000F50B0008000000000000000000000000B7
:10014000000000000000000000000000F50B0008A7
:10015000F50B0008F50B0008F50B0008F50B00087F
:10016000F50B0008F50B000800000000000000007F
:10017000000000000000000000000000000000007F
:1001800000000000F50B0008000000000000000067
:08019000F50B0008F50B000857
:1001A00010B5054C237833B9044B13B10448AFF3B1
:1001B00000800123237010BD5400002000000000C7
:1001C000A415000808B5034B1BB103490348AFF35E
:1001D000008008BD0000000058000020A4150008A1
:1001E000034613F8012B002AFBD1181A0138704777
:1001F00001F0FF01102A2BDB10F0070F08D010F8D8
:10020000013B013A8B422DD010F0070F42B3F6D1DB
:10021000F0B441EA012141EA014122F007047FF0F4
:1002200000070023F0E80256083C85EA010586EA4B
:10023000010685FA47F5A3FA87F586FA47F6A5FA87
:1002400087F68EB9EED1F0BC01F0FF0102F0070293
:1002500032B110F8013B013A83EA010313B1F8D13E
:100260000020704701387047002D06BF354603381F
:10027000073815F0010F07D1013015F4807F02BF58
:10028000013015F4C03F0130F0BC0138704700BFA9
:1002900080B485B000AF78600023FB600DE00023E0
:1002A000BB6003E000BFBB680133BB60BB68B3F554
:1002B000486FF7D3FB680133FB60FA687B689A42AA
:1002C000EDD300BF00BF1437BD465DF8047B704717
:1002D00080B400AF0E4B1B680D4A43F00803136057
:1002E0000C4B1B680B4A23F07F431360094B1B68C0
:1002F000084A43F0AA431360074B1B68064A23F4DD
:100300007043136000BFBD465DF8047B704700BFBB
:1003100030380240000C0240140C024080B400AFA0
:10032000204B1B681F4A43F0020313601E4B1B68DF
:100330001D4A43F0100313601C4B1B681B4A23F437
:1003400070431360194B1B68184A43F42043136031
:10035000174B1B68164A23F07F431360144B1B682E
:10036000134A43F0EE431360124B1B68114A43F4E7
:1003700070431360104B1B680F4A23F470431360E3
:100380000D4B1B680C4A43F4A04313600B4B8B22AC
:100390001A600B4B42F20C021A6000BFBD465DF8BA
:1003A000047B704730380240443802400004024069
:1003B00020040240080402400C04024008100140DE
:1003C0000C10014080B483B000AF0346FB7100BF46
:1003D000074B1B68DB0903F00103002BF8D0054A2B
:1003E000FB79136000BF0C37BD465DF8047B704796
:1003F00000100140041001400FB480B5A4B000AF5C
:1004000007F19C03C7F884303B1D80220021184669
:1004100000F042FC381DD7F88430D7F898208021AE
:1004200000F02CFC3B1D1846FFF7DAFE0346C7F828
:1004300088300023C7F88C300CE03A1DD7F88C3098
:1004400013441B781846FFF7BDFFD7F88C300133F3
:10045000C7F88C30D7F88C20D7F888309A42ECDB7C
:1004600000BF00BF9037BD46BDE8804004B0704774
:1004700080B400AF054B1B68044A23F008031360E7
:1004800000BFBD465DF8047B704700BF14100240FA
:1004900080B400AF00BF094B1B68DB0903F0010308
:1004A000002BF8D1064B1B68054A43F00803136084
:1004B00000BFBD465DF8047B704700BF08300140B7
:1004C0001410024080B400AF2F4B1B682E4A43F03B
:1004D000110313602D4B1B682C4A43F480531360A7
:1004E0002B4B1B682A4A23F0C0031360284B1B6860
:1004F000274A43F040031360264B1B68254A43F00C
:10050000C0031360244B1B68234A23F0C00313600D
:10051000214B1B68204A43F0400313601F4B1B68AC
:100520001E4A43F0080313601D4B1B681C4A23F44A
:100530007C4313601A4B1B68194A43F42843136029
:10054000184B1B68174AC3F313031360154B1B6842
:10055000144A43F0AA4343F4A0031360124B1B68F0
:10056000114A43F47C431360104B1B680F4A23F479
:100570007C4313600E4B40F257321A6000BFBD46F9
:100580005DF8047B704700BF3038024044380240B9
:1005900000100240081002400C10024014100240EB
:1005A0000000024020000240080002400C0002400F
:1005B0000030014080B483B000AF0346FB7100BF40
:1005C0000C4B1B685B0803F00103002BF8D00A4AB0
:1005D000FB79136000BF074B1B6803F00103002B7E
:1005E000F9D0054B1B68DBB218460C37BD465DF8E9
:1005F000047B7047083001400C30014080B582B068
:1006000000AF03460A46FB711346BB71FFF730FF8C
:10061000FB7903F03F03DBB21846FFF7CBFFBB7952
:100620001846FFF7C7FFFFF733FF00BF0837BD4687
:1006300080BD80B584B000AF0346FB71FFF718FFA3
:1006400097F9073003F03F035BB263F07F035BB2BF
:10065000DBB21846FFF7AEFF0020FFF7ABFF034603
:10066000FB73FFF715FFFB7B18461037BD4680BDB7
:1006700080B582B000AF1420FFF70AFE0F20FFF70D
:10068000D8FF0346FB710F212020FFF7B7FF802121
:100690002320FFF7B3FF0A20FFF7FAFDFB79184686
:1006A0000837BD4680BD80B586B000AFF860B96040
:1006B0007A60FFF7DDFEE820FFF77CFF0020FFF700
:1006C00079FF0346FB750020FFF774FF0346BB75F7
:1006D0000020FFF76FFF03467B750020FFF76AFFDE
:1006E00003463B750020FFF765FF0346FB740020BF
:1006F000FFF760FF0346BB74FFF7CAFEBB7D1BB26A
:100700001B021AB2FB7D1BB213431AB2FB681A809C
:100710003B7D1BB21B021AB27B7D1BB213431AB284
:10072000BB681A80BB7C1BB21B021AB2FB7C1BB2DB
:1007300013431AB27B681A8000BF1837BD4680BDCC
:1007400080B400AF184B1B68174A43F001031360D5
:10075000164B43F67F621A60154B40F2F3121A6093
:10076000144B1B68134A43F001031360124B1B68C0
:10077000114A23F001031360104B1B680F4A43F02A
:10078000010313600E4B1B680D4A43F000731360A6
:100790000C4B1B680B4A43F00103136000BFBD46BE
:1007A0005DF8047B704700BF4438024028000140D8
:1007B0002C00014014000140100001400C000140D9
:1007C00000E100E00000014080B400AF094B1B686D
:1007D00003F00103002B08D0064B1B68054A23F0E9
:1007E00001031360044B01221A7000BFBD465DF87F
:1007F000047B7047100001407000002080B400AFFF
:10080000194B1B68184A43F001031360174B43F65A
:100810007F621A60164B40F2F3121A60154B1B6888
:10082000144A43F001031360134B1B68124A23F070
:1008300001031360114B1B68104A43F0010313605E
:100840000F4B1B680E4A43F0805313604FF08043F8
:100850001B684FF0804243F00103136000BFBD46A8
:100860005DF8047B704700BF40380240280000401C
:100870002C00004014000040100000400C0000401C
:1008800000E100E080B400AF174B1B6803F00103E8
:10089000002B24D0144B1B68134A23F00103136070
:1008A000124B1B68114A23F4704313600F4B1B68F3
:1008B0000F4A12780C32012101FA02F211460B4A5A
:1008C0000B4313600A4B1B7801335A4203F00303B6
:1008D00002F0030258BF5342DAB2054B1A7000BF50
:1008E000BD465DF8047B704710000040140C0240C8
:1008F0007100002080B592B006AFFFF7E9FCFFF76A
:100900000DFDFFF7DFFD6448FFF776FDFFF7B0FE52
:10091000034687F8233097F8233019465F48FFF7DE
:100920006BFD5F48FFF768FDFFF70AFFFFF766FF03
:1009300002212320FFF762FE5A4B1B78DBB2012B0A
:10094000FAD1584B00221A700023FB800023BB8091
:1009500000237B80BA1C391DBB1D1846FFF7A3FE80
:10096000B7F9063007EE903AF8EEE77A9FED4E7A47
:1009700067EE877AC7ED077AB7F9043007EE903A49
:10098000F8EEE77A9FED487A67EE877AC7ED067A48
:10099000B7F9023007EE903AF8EEE77A9FED427A27
:1009A00067EE877AC7ED057AD7ED077AFDEEE77A2D
:1009B00017EE903A3B613B6907EE903AF8EEE77A22
:1009C00097ED077A77EE677A9FED387A67EE877A48
:1009D000FDEEE77A17EE903AFB62FB6A002B02DA33
:1009E000FB6A5B42FB62D7ED067AFDEEE77A17EE13
:1009F000903AFB60FB6807EE903AF8EEE77A97EDE5
:100A0000067A77EE677A9FED297A67EE877AFDEEB0
:100A1000E77A17EE903ABB62BB6A002B02DABB6A38
:100A20005B42BB62D7ED057AFDEEE77A17EE903AAE
:100A3000BB60BB6807EE903AF8EEE77A97ED057A6F
:100A400077EE677A9FED197A67EE877AFDEEE77A9F
:100A500017EE903A7B627B6A002B02DA7B6A5B427C
:100A60007B62B7F906301946B7F904301A46B7F970
:100A7000023018467B6A0593BB680493BB6A0393F4
:100A8000FB680293FB6A01933B69009303460848A5
:100A9000FFF7B2FC50E700BFBC150008D4150008F2
:100AA0000816000870000020295C0F3C0000C842B6
:100AB0005416000880B400AF00BFFDE780B400AF5B
:100AC00000BFFDE780B400AF00BFFDE780B400AF1A
:100AD00000BFFDE780B400AF00BFFDE780B400AF0A
:100AE00000BFBD465DF8047B704780B400AF00BF17
:100AF000BD465DF8047B704780B400AF00BFBD46C3
:100B00005DF8047B704780B500AF00F075F800BF5A
:100B100080BD000080B586B000AF7860144A154BE8
:100B2000D31A7B617B693B61134B1B68002B02D19D
:100B3000114B124A1A60104B1A687B6813443A69C9
:100B40009A4207D200F0B0F803460C221A604FF028
:100B5000FF3309E0084B1B68FB60074B1A687B6892
:100B60001344054A1360FB6818461837BD4680BD1C
:100B7000000002200004000074000020C8010020D2
:100B800080B400AF064BD3F88830054A43F47003B5
:100B9000C2F8883000BFBD465DF8047B704700BFD7
:100BA00000ED00E0DFF834D0FFF7EAFF0C480D4914
:100BB0000D4A002302E0D458C4500433C4188C42B8
:100BC000F9D30A4A0A4C002301E013600432A2421E
:100BD000FBD300F06FF8FFF78DFE70470000022096
:100BE0000000002054000020E816000854000020F7
:100BF000C4010020FEE7000080B400AF064B1B7864
:100C00001A46064B1B681344044A136000BFBD46D6
:100C10005DF8047B704700BF0000002078000020D2
:100C200030B51446002C9BB005461A4605DA8B23D6
:100C300003604FF0FF301BB030BD4FF40273ADF8CE
:100C40000C304FF00003199314BF04F1FF33234617
:100C5000029305934FF6FF7300910491ADF80E30A7
:100C600069461E9B00F0A4F9431CBCBF8B232B607C
:100C7000002CE0D0009B00221A70DCE707B500933F
:100C800013460A46014603480068FFF7C9FF03B050
:100C900000BD00BF0400002002440346934200D17F
:100CA000704703F8011BF9E7014B1868704700BF54
:100CB0000400002070B50D4B0D4D5B1B9C100026F1
:100CC000A64209D100F06EFC0A4D0B4B5B1B9C1039
:100CD0000026A64205D170BD55F8043B9847013661
:100CE000EEE755F8043B98470136F2E7E0160008B6
:100CF000E0160008E0160008E41600087047704788
:100D000038B50546002941D051F8043C0C1F002B92
:100D1000B8BFE41800F0E0F81D4A136833B9636007
:100D200014602846BDE8384000F0DCB8A34208D97A
:100D3000206821188B4201BF19685B68091821607F
:100D4000EDE71A465B680BB1A342FAD91168501857
:100D5000A0420BD120680144501883421160E0D1B9
:100D600018685B68536008441060DAE702D90C2306
:100D70002B60D6E7206821188B4204BF19685B6896
:100D8000636004BF091821605460CAE738BD00BF22
:100D9000C001002070B50F4E0C463168054611B9F0
:100DA00000F0ACFB30602146284600F0A7FB431C56
:100DB00003D14FF0FF34204670BDC41C24F003045F
:100DC000A042F8D0211A284600F098FB0130F2D159
:100DD000EFE700BFBC0100202DE9F843CD1C25F052
:100DE000030508350C2D38BF0C25002D064601DB08
:100DF000A94204D90C2333600020BDE8F883DFF852
:100E0000D48000F069F8D8F800301C4644BB29466D
:100E10003046FFF7BFFF431C044658D1D8F80040C6
:100E20002746002F43D1002C4BD02368394630464B
:100E300004EB030900F062FB814542D121686D1A81
:100E400029463046FFF7A6FF01303AD023682B44ED
:100E50002360D8F800305A6862BBC8F800700FE011
:100E60002268521B20D40B2A17D96119A34225608E
:100E700018BF5960636808BFC8F8001062514B6022
:100E8000304600F02FF804F10B00231D20F007007E
:100E9000C21A1CBF1B1AA350AFE76268A3420CBF63
:100EA000C8F800205A60EBE723466468AEE73C468A
:100EB0007F68B6E71A465B68A342FBD10023536004
:100EC000DEE70C233360304600F00CF894E7056051
:100ED000D6E700BFC00100200148FFF70FBF00BFE9
:100EE000B80100200148FFF70ABF00BFB801002089
:100EF0002DE9F0478E681F46BE4282460C4690465A
:100F0000334653D8B1F90C0010F4906F2BD06569BB
:100F10002368096905EB4505A3EB010905EBD575C8
:100F20007B1C6D104B44AB422A4684BF1D462A46AB
:100F3000430527D511465046FFF74EFF064658B3E6
:100F400021694A4600F0EAFAA38923F4906343F04A
:100F50008003A381266165614E44A5EB09052660E7
:100F6000A5603E463B461F4620683A46414600F093
:100F7000ABFAA3689B1BA36023683B44236000205B
:100F8000BDE8F087504600F0D7FA06460028E1D1C8
:100F900021695046FFF7B4FE0C23CAF80030A3893C
:100FA00043F04003A3814FF0FF30E9E73E46DBE723
:100FB0002DE9F0471F468B891B069CB006460D465F
:100FC000144610D50B6973B94021FFF705FF28605F
:100FD000286130B90C2333604FF0FF301CB0BDE8FE
:100FE000F08740236B610023099320238DF829307B
:100FF00003973023654F8DF82A304FF001082346C0
:10100000994613F8012B0AB1252AF9D1B9EB040A44
:101010000BD05346224629463046FFF769FF013080
:1010200000F0A480099A5244099299F80030002BEC
:1010300000F09C8000234FF0FF32CDE9052309F139
:101040000109049307938DF853301A934C464F4887
:1010500014F8011B0522FFF7CBF8049BD0B9D80682
:1010600044BF20228DF85320190744BF2B228DF84E
:10107000532099F800202A2A13D0079A4C460020C2
:101080004FF00A0C214611F8013B303B092B49D99E
:1010900068B913E0C01B08FA00F018430490A14699
:1010A000D4E7039A111D12680391002A01DB07920D
:1010B00004E0524243F002030792049323782E2B5C
:1010C0000AD163782A2B32D1039B1A1D1B68039225
:1010D00043EAE37302340593DFF8C09021780322DA
:1010E0004846FFF785F838B1049BA0EB0900402281
:1010F000824013430134049314F8011B24488DF8F3
:1011000028100622FFF774F8002835D0214818BBB4
:10111000039B073323F0070308330393099B03441E
:1011200009936CE70CFB02320C460120AAE700236E
:101130000134059319464FF00A0C204610F8012B94
:10114000303A092A03D9002BC6D00591C4E70CFB1D
:10115000012104460123F0E703AB00932A460E4B1E
:1011600004A93046AFF30080421CD7D1AB895B069F
:101170003FF532AF099831E703AB00932A46064B9F
:1011800004A9304600F07AF8EEE700BFA416000884
:10119000AE16000800000000F10E0008AA160008B4
:1011A0002DE9F047164698468A680B69DDF82090CD
:1011B0009342B8BF1346336091F8432007460C466C
:1011C0000AB1013333602368990642BF33680233A2
:1011D0003360256815F0060506D104F1190AE368A5
:1011E00032689B1AAB4226DC94F843302268003BFD
:1011F00018BF012392062BD404F14302414638461E
:10120000C84701301ED02368226903F00603042B6F
:1012100002BFE5683368ED1AA3680CBF25EAE575DF
:1012200000259342C4BF9B1AED1800261A34B5421C
:101230001AD1002008E00123524641463846C847EB
:10124000013003D14FF0FF30BDE8F0870135C6E72C
:10125000E1185A1C302081F84300224494F84510CC
:1012600082F843100233C7E701232246414638463D
:10127000C8470130E6D00136D9E700002DE9F04338
:101280000D7E85B0782D90460C9E07460C469946FB
:1012900001F1430207D8622D0AD8002D00F0D78053
:1012A000582D00F0BC8004F1420684F842503BE027
:1012B000A5F16303152BF6D801A151F823F000BF67
:1012C000191300082D130008A7120008A712000820
:1012D000A7120008A71200082D130008A712000883
:1012E000A7120008A7120008A7120008351400086A
:1012F00057130008E7130008A7120008A7120008F8
:1013000057140008A712000857130008A712000876
:10131000A7120008EF13000833681A1D1B6832601B
:1013200004F1420684F842300123A1E033682068CA
:10133000191D3160060601D51D6803E04506FBD581
:10134000B3F90050002D03DA2D236D4284F84330A9
:101350005B480A2311E021683368080653F8045BF0
:1013600002D4490648BFADB23360237E54486F2B88
:101370005CD10823002184F843106668A660002E23
:1013800005DB21682E4321F00401216050D0164670
:10139000B5FBF3F103FB115C10F80CC006F801CDAE
:1013A000AC4663450D46F3D9082B0BD12368DB0708
:1013B00008D5236961689942DEBF302306F8013CF5
:1013C00006F1FF36921B2261CDF80090434603AA36
:1013D00021463846FFF7E4FE01304ED14FF0FF3092
:1013E00005B0BDE8F083236843F02003236035484F
:1013F000782584F845502368316813F0800F51F840
:10140000045B03D113F0400F18BFADB23160D907B0
:1014100044BF43F0200323601DB11023AAE72848EE
:10142000E7E7236823F020032360F6E70A23A1E718
:101430001646B9E7336825686169181D30602E06C5
:101440001B6801D5196002E06806FBD519800023EE
:1014500023611646B8E733681A1D32601E68626859
:1014600000213046FEF7C4FE08B1801B606063684F
:101470002361002384F84330A6E7236932464146BE
:101480003846C8470130A9D023689B0713D4E068C9
:10149000039B9842B8BF1846A2E701233246414653
:1014A0003846C847013099D00135E36803995B1A83
:1014B000AB42F2DCEBE7002504F11906F5E700BFCB
:1014C000B5160008C6160008884210B501EB0204E4
:1014D00002D98442234607D8431EA14207D011F8FF
:1014E000012B03F8012FF8E70244824200D110BD1E
:1014F00013F8011D02F8011DF7E7000038B5064D8D
:101500000023044608462B60FFF704FB431C02D16E
:101510002B6803B1236038BDB40100200A44914216
:1015200000F1FF3300D1704710B511F8014B03F8FB
:10153000014F9142F9D110BD2DE9F0410746144603
:101540000D4621B9BDE8F0411146FFF745BC2AB967
:10155000FFF7D6FB25462846BDE8F08100F01AF8D3
:101560008442064602D8B4EB500FF4D821463846E0
:10157000FFF732FC804608B94546ECE7B442224604
:10158000294628BF3246FFF7C9FF29463846FFF7EC
:10159000B7FBF1E751F8043C181F002BBCBF0B58F8
:1015A000C0187047F8B500BFF8BC08BC9E4670472D
:0C15B000F8B500BFF8BC08BC9E467047B0
:1015BC0054686973206973206669726D776172650E
:1015CC002030310D0A0000004933473432353044A5
:1015DC00204779726F73636F706520496E69746907
:1015EC00616C697A65642E2044657669636520496F
:1015FC00443A203078253032580D0A003D3D3D3DAF
:10160C003D3D3D3D3D3D3D3D3D3D3D3D3D3D3D3DFE
:10161C003D3D3D3D3D3D3D3D3D3D3D3D3D3D3D3DEE
:10162C003D3D3D3D3D3D3D3D3D3D3D3D3D3D3D3DDE
:10163C003D3D3D3D3D3D3D3D3D3D3D3D3D3D3D3DCE
:10164C003D3D0D0A000000005B4933473432353014
:10165C00445D205241573A20583D252D366420597F
:10166C003D252D3664205A3D252D3664207C2044A2
:10167C0050533A20583D25642E2530326420593D74
:10168C0025642E25303264205A3D25642E253032B7
:10169C0064206470730D0A00232D302B2000686CBD
:1016AC004C00656667454647003031323334353679
:1016BC0037383941424344454600303132333435B2
:0C16CC00363738396162636465660000DF
:0816D80008EBFF7F0100000098
:0416E000C501000838
:0416E400A101000858
:1016E8000100000008000020000000007C0000202D
:1016F800E40000204C010020000000000000000071
:1017080000000000000000000000000000000000D1
:1017180000000000000000000000000000000000C1
:1017280000000000000000000000000000000000B1
:0417380000000000AD
:0400000508000BA53F
:00000001FF
